{
  "_format": "hh-sol-artifact-1",
  "contractName": "Carpool",
  "sourceName": "contracts/Carpool.sol",
  "abi": [
    {
      "inputs": [],
      "stateMutability": "nonpayable",
      "type": "constructor"
    },
    {
      "stateMutability": "payable",
      "type": "fallback"
    },
    {
      "inputs": [],
      "name": "abortRide",
      "outputs": [],
      "stateMutability": "nonpayable",
      "type": "function"
    },
    {
      "inputs": [
        {
          "internalType": "uint256",
          "name": "driverSelected",
          "type": "uint256"
        }
      ],
      "name": "bookRide",
      "outputs": [],
      "stateMutability": "nonpayable",
      "type": "function"
    },
    {
      "inputs": [],
      "name": "completeRide",
      "outputs": [],
      "stateMutability": "nonpayable",
      "type": "function"
    },
    {
      "inputs": [
        {
          "internalType": "string",
          "name": "name",
          "type": "string"
        },
        {
          "internalType": "string",
          "name": "phoneNumber",
          "type": "string"
        }
      ],
      "name": "driverRegistration",
      "outputs": [
        {
          "internalType": "bool",
          "name": "",
          "type": "bool"
        }
      ],
      "stateMutability": "nonpayable",
      "type": "function"
    },
    {
      "inputs": [
        {
          "internalType": "address",
          "name": "",
          "type": "address"
        }
      ],
      "name": "driverTable",
      "outputs": [
        {
          "internalType": "address payable",
          "name": "account",
          "type": "address"
        },
        {
          "internalType": "string",
          "name": "name",
          "type": "string"
        },
        {
          "internalType": "uint256",
          "name": "rating",
          "type": "uint256"
        },
        {
          "internalType": "string",
          "name": "phoneNumber",
          "type": "string"
        },
        {
          "internalType": "uint256",
          "name": "numRidesCompleted",
          "type": "uint256"
        }
      ],
      "stateMutability": "view",
      "type": "function"
    },
    {
      "inputs": [
        {
          "internalType": "string",
          "name": "src",
          "type": "string"
        },
        {
          "internalType": "string",
          "name": "dest",
          "type": "string"
        },
        {
          "internalType": "string",
          "name": "car",
          "type": "string"
        },
        {
          "internalType": "uint256",
          "name": "fare",
          "type": "uint256"
        }
      ],
      "name": "findPassengers",
      "outputs": [
        {
          "internalType": "bool",
          "name": "",
          "type": "bool"
        }
      ],
      "stateMutability": "nonpayable",
      "type": "function"
    },
    {
      "inputs": [],
      "name": "getBalance",
      "outputs": [
        {
          "internalType": "uint256",
          "name": "",
          "type": "uint256"
        }
      ],
      "stateMutability": "view",
      "type": "function"
    },
    {
      "inputs": [],
      "name": "getBookedDriverAddress",
      "outputs": [
        {
          "internalType": "address payable",
          "name": "",
          "type": "address"
        }
      ],
      "stateMutability": "view",
      "type": "function"
    },
    {
      "inputs": [],
      "name": "getEligibleDrivers",
      "outputs": [
        {
          "components": [
            {
              "internalType": "address payable",
              "name": "account",
              "type": "address"
            },
            {
              "internalType": "string",
              "name": "source",
              "type": "string"
            },
            {
              "internalType": "string",
              "name": "destination",
              "type": "string"
            },
            {
              "internalType": "string",
              "name": "car",
              "type": "string"
            },
            {
              "internalType": "uint256",
              "name": "fare",
              "type": "uint256"
            },
            {
              "internalType": "string",
              "name": "name",
              "type": "string"
            },
            {
              "internalType": "uint256",
              "name": "rating",
              "type": "uint256"
            },
            {
              "internalType": "string",
              "name": "phoneNumber",
              "type": "string"
            },
            {
              "internalType": "uint256",
              "name": "numRidesCompleted",
              "type": "uint256"
            }
          ],
          "internalType": "struct Carpool.availableDriver[]",
          "name": "",
          "type": "tuple[]"
        }
      ],
      "stateMutability": "view",
      "type": "function"
    },
    {
      "inputs": [],
      "name": "getFare",
      "outputs": [
        {
          "internalType": "uint256",
          "name": "",
          "type": "uint256"
        }
      ],
      "stateMutability": "view",
      "type": "function"
    },
    {
      "inputs": [
        {
          "internalType": "uint256",
          "name": "rating",
          "type": "uint256"
        }
      ],
      "name": "giveRating",
      "outputs": [],
      "stateMutability": "view",
      "type": "function"
    },
    {
      "inputs": [
        {
          "internalType": "string",
          "name": "src",
          "type": "string"
        },
        {
          "internalType": "string",
          "name": "dest",
          "type": "string"
        }
      ],
      "name": "searchRide",
      "outputs": [],
      "stateMutability": "nonpayable",
      "type": "function"
    },
    {
      "inputs": [
        {
          "internalType": "address payable",
          "name": "_to",
          "type": "address"
        }
      ],
      "name": "sendViaCall",
      "outputs": [],
      "stateMutability": "payable",
      "type": "function"
    },
    {
      "inputs": [
        {
          "internalType": "address payable",
          "name": "_to",
          "type": "address"
        }
      ],
      "name": "sendViaSend",
      "outputs": [],
      "stateMutability": "payable",
      "type": "function"
    },
    {
      "inputs": [
        {
          "internalType": "address payable",
          "name": "_to",
          "type": "address"
        }
      ],
      "name": "sendViaTransfer",
      "outputs": [],
      "stateMutability": "payable",
      "type": "function"
    },
    {
      "stateMutability": "payable",
      "type": "receive"
    }
  ],
  "bytecode": "0x608060405234801561001057600080fd5b50336000806101000a81548173ffffffffffffffffffffffffffffffffffffffff021916908373ffffffffffffffffffffffffffffffffffffffff16021790555060018081905550612d41806100676000396000f3fe6080604052600436106100ec5760003560e01c806374be48061161008a578063c69b2cf611610059578063c69b2cf6146102b3578063dc104f80146102dc578063e6b547b714610305578063fbca2d4c1461031c576100f3565b806374be48061461023b578063830c29ae146102575780639fe54f6d14610273578063ac97e31c1461028a576100f3565b80634de88b87116100c65780634de88b871461018c57806355757496146101c95780635ee4a16f146101f4578063636e082b1461021f576100f3565b806312065fe0146100f557806333211e13146101205780633a12de581461014b576100f3565b366100f357005b005b34801561010157600080fd5b5061010a610359565b6040516101179190611d54565b60405180910390f35b34801561012c57600080fd5b50610135610361565b6040516101429190611ff2565b60405180910390f35b34801561015757600080fd5b50610172600480360381019061016d9190612066565b61070f565b6040516101839594939291906120ec565b60405180910390f35b34801561019857600080fd5b506101b360048036038101906101ae91906122ae565b610875565b6040516101c09190612384565b60405180910390f35b3480156101d557600080fd5b506101de610c88565b6040516101eb9190611d54565b60405180910390f35b34801561020057600080fd5b50610209610cb7565b604051610216919061239f565b60405180910390f35b610239600480360381019061023491906123e6565b610ce1565b005b610255600480360381019061025091906123e6565b610d2b565b005b610271600480360381019061026c91906123e6565b610da8565b005b34801561027f57600080fd5b50610288610e58565b005b34801561029657600080fd5b506102b160048036038101906102ac9190612413565b610e76565b005b3480156102bf57600080fd5b506102da60048036038101906102d5919061248b565b611408565b005b3480156102e857600080fd5b5061030360048036038101906102fe919061248b565b611785565b005b34801561031157600080fd5b5061031a6119e4565b005b34801561032857600080fd5b50610343600480360381019061033e9190612413565b6119f4565b6040516103509190612384565b60405180910390f35b600047905090565b60606003805480602002602001604051908101604052809291908181526020016000905b828210156107065783829060005260206000209060090201604051806101200160405290816000820160009054906101000a900473ffffffffffffffffffffffffffffffffffffffff1673ffffffffffffffffffffffffffffffffffffffff1673ffffffffffffffffffffffffffffffffffffffff16815260200160018201805461040f906124e7565b80601f016020809104026020016040519081016040528092919081815260200182805461043b906124e7565b80156104885780601f1061045d57610100808354040283529160200191610488565b820191906000526020600020905b81548152906001019060200180831161046b57829003601f168201915b505050505081526020016002820180546104a1906124e7565b80601f01602080910402602001604051908101604052809291908181526020018280546104cd906124e7565b801561051a5780601f106104ef5761010080835404028352916020019161051a565b820191906000526020600020905b8154815290600101906020018083116104fd57829003601f168201915b50505050508152602001600382018054610533906124e7565b80601f016020809104026020016040519081016040528092919081815260200182805461055f906124e7565b80156105ac5780601f10610581576101008083540402835291602001916105ac565b820191906000526020600020905b81548152906001019060200180831161058f57829003601f168201915b50505050508152602001600482015481526020016005820180546105cf906124e7565b80601f01602080910402602001604051908101604052809291908181526020018280546105fb906124e7565b80156106485780601f1061061d57610100808354040283529160200191610648565b820191906000526020600020905b81548152906001019060200180831161062b57829003601f168201915b505050505081526020016006820154815260200160078201805461066b906124e7565b80601f0160208091040260200160405190810160405280929190818152602001828054610697906124e7565b80156106e45780601f106106b9576101008083540402835291602001916106e4565b820191906000526020600020905b8154815290600101906020018083116106c757829003601f168201915b5050505050815260200160088201548152505081526020019060010190610385565b50505050905090565b60046020528060005260406000206000915090508060000160009054906101000a900473ffffffffffffffffffffffffffffffffffffffff1690806001018054610758906124e7565b80601f0160208091040260200160405190810160405280929190818152602001828054610784906124e7565b80156107d15780601f106107a6576101008083540402835291602001916107d1565b820191906000526020600020905b8154815290600101906020018083116107b457829003601f168201915b5050505050908060020154908060030180546107ec906124e7565b80601f0160208091040260200160405190810160405280929190818152602001828054610818906124e7565b80156108655780601f1061083a57610100808354040283529160200191610865565b820191906000526020600020905b81548152906001019060200180831161084857829003601f168201915b5050505050908060040154905085565b6000806000905060005b60058054905081101561091957600581815481106108a05761089f612518565b5b9060005260206000200160009054906101000a900473ffffffffffffffffffffffffffffffffffffffff1673ffffffffffffffffffffffffffffffffffffffff163373ffffffffffffffffffffffffffffffffffffffff16036109065760019150610919565b808061091190612576565b91505061087f565b506000151581151503610930576000915050610c80565b6000600460003373ffffffffffffffffffffffffffffffffffffffff1673ffffffffffffffffffffffffffffffffffffffff1681526020019081526020016000206040518060a00160405290816000820160009054906101000a900473ffffffffffffffffffffffffffffffffffffffff1673ffffffffffffffffffffffffffffffffffffffff1673ffffffffffffffffffffffffffffffffffffffff1681526020016001820180546109e2906124e7565b80601f0160208091040260200160405190810160405280929190818152602001828054610a0e906124e7565b8015610a5b5780601f10610a3057610100808354040283529160200191610a5b565b820191906000526020600020905b815481529060010190602001808311610a3e57829003601f168201915b5050505050815260200160028201548152602001600382018054610a7e906124e7565b80601f0160208091040260200160405190810160405280929190818152602001828054610aaa906124e7565b8015610af75780601f10610acc57610100808354040283529160200191610af7565b820191906000526020600020905b815481529060010190602001808311610ada57829003601f168201915b50505050508152602001600482015481525050905060006040518061012001604052803373ffffffffffffffffffffffffffffffffffffffff16815260200189815260200188815260200187815260200186815260200183602001518152602001836040015181526020018360600151815260200183608001518152509050600281908060018154018082558091505060019003906000526020600020906009020160009091909190915060008201518160000160006101000a81548173ffffffffffffffffffffffffffffffffffffffff021916908373ffffffffffffffffffffffffffffffffffffffff1602179055506020820151816001019081610bfe919061276a565b506040820151816002019081610c14919061276a565b506060820151816003019081610c2a919061276a565b506080820151816004015560a0820151816005019081610c4a919061276a565b5060c0820151816006015560e0820151816007019081610c6a919061276a565b5061010082015181600801555050600193505050505b949350505050565b6000600360085481548110610ca057610c9f612518565b5b906000526020600020906009020160040154905090565b6000600760009054906101000a900473ffffffffffffffffffffffffffffffffffffffff16905090565b8073ffffffffffffffffffffffffffffffffffffffff166108fc349081150290604051600060405180830381858888f19350505050158015610d27573d6000803e3d6000fd5b5050565b60008173ffffffffffffffffffffffffffffffffffffffff166108fc349081150290604051600060405180830381858888f19350505050905080610da4576040517f08c379a0000000000000000000000000000000000000000000000000000000008152600401610d9b90612888565b60405180910390fd5b5050565b60008173ffffffffffffffffffffffffffffffffffffffff1634604051610dce906128d9565b60006040518083038185875af1925050503d8060008114610e0b576040519150601f19603f3d011682016040523d82523d6000602084013e610e10565b606091505b5050905080610e54576040517f08c379a0000000000000000000000000000000000000000000000000000000008152600401610e4b90612888565b60405180910390fd5b5050565b600660009054906101000a90505060036000610e749190611c14565b565b6000600280549050905060005b8181121561140257600060028281548110610ea157610ea0612518565b5b90600052602060002090600902016001018054610ebd906124e7565b80601f0160208091040260200160405190810160405280929190818152602001828054610ee9906124e7565b8015610f365780601f10610f0b57610100808354040283529160200191610f36565b820191906000526020600020905b815481529060010190602001808311610f1957829003601f168201915b50505050509050600060028381548110610f5357610f52612518565b5b90600052602060002090600902016002018054610f6f906124e7565b80601f0160208091040260200160405190810160405280929190818152602001828054610f9b906124e7565b8015610fe85780601f10610fbd57610100808354040283529160200191610fe8565b820191906000526020600020905b815481529060010190602001808311610fcb57829003601f168201915b5050505050905081604051602001611000919061292a565b6040516020818303038152906040528051906020012086604051602001611027919061292a565b60405160208183030381529060405280519060200120036113ed5780604051602001611053919061292a565b604051602081830303815290604052805190602001208560405160200161107a919061292a565b60405160208183030381529060405280519060200120036113ec576003600284815481106110ab576110aa612518565b5b906000526020600020906009020190806001815401808255809150506001900390600052602060002090600902016000909190919091506000820160009054906101000a900473ffffffffffffffffffffffffffffffffffffffff168160000160006101000a81548173ffffffffffffffffffffffffffffffffffffffff021916908373ffffffffffffffffffffffffffffffffffffffff1602179055506001820181600101908161115d9190612957565b50600282018160020190816111729190612957565b50600382018160030190816111879190612957565b5060048201548160040155600582018160050190816111a69190612957565b5060068201548160060155600782018160070190816111c59190612957565b5060088201548160080155505060026001856111e19190612a3f565b815481106111f2576111f1612518565b5b90600052602060002090600902016002848154811061121457611213612518565b5b90600052602060002090600902016000820160009054906101000a900473ffffffffffffffffffffffffffffffffffffffff168160000160006101000a81548173ffffffffffffffffffffffffffffffffffffffff021916908373ffffffffffffffffffffffffffffffffffffffff1602179055506001820181600101908161129d9190612957565b50600282018160020190816112b29190612957565b50600382018160030190816112c79190612957565b5060048201548160040155600582018160050190816112e69190612957565b5060068201548160060155600782018160070190816113059190612957565b50600882015481600801559050506001846113209190612a7d565b935060018361132f9190612a7d565b9250600280548061134357611342612ac0565b5b6001900381819060005260206000209060090201600080820160006101000a81549073ffffffffffffffffffffffffffffffffffffffff021916905560018201600061138f9190611c38565b60028201600061139f9190611c38565b6003820160006113af9190611c38565b60048201600090556005820160006113c79190611c38565b60068201600090556007820160006113df9190611c38565b6008820160009055505090555b5b505080806113fa90612aef565b915050610e83565b50505050565b80600881905550600060036008548154811061142757611426612518565b5b906000526020600020906009020160040154905060036008548154811061145157611450612518565b5b906000526020600020906009020160000160009054906101000a900473ffffffffffffffffffffffffffffffffffffffff16600760006101000a81548173ffffffffffffffffffffffffffffffffffffffff021916908373ffffffffffffffffffffffffffffffffffffffff16021790555033600660006101000a81548173ffffffffffffffffffffffffffffffffffffffff021916908373ffffffffffffffffffffffffffffffffffffffff1602179055506103e8816115129190612b66565b600660009054906101000a900473ffffffffffffffffffffffffffffffffffffffff1673ffffffffffffffffffffffffffffffffffffffff1631101561158d576040517f08c379a000000000000000000000000000000000000000000000000000000000815260040161158490612c09565b60405180910390fd5b6103e860015461159d9190612b66565b600760009054906101000a900473ffffffffffffffffffffffffffffffffffffffff1673ffffffffffffffffffffffffffffffffffffffff16311015611618576040517f08c379a000000000000000000000000000000000000000000000000000000000815260040161160f90612c75565b60405180910390fd5b60005b6003805490508110156117805782811461176d5760026003828154811061164557611644612518565b5b906000526020600020906009020190806001815401808255809150506001900390600052602060002090600902016000909190919091506000820160009054906101000a900473ffffffffffffffffffffffffffffffffffffffff168160000160006101000a81548173ffffffffffffffffffffffffffffffffffffffff021916908373ffffffffffffffffffffffffffffffffffffffff160217905550600182018160010190816116f79190612957565b506002820181600201908161170c9190612957565b50600382018160030190816117219190612957565b5060048201548160040155600582018160050190816117409190612957565b50600682015481600601556007820181600701908161175f9190612957565b506008820154816008015550505b808061177890612576565b91505061161b565b505050565b600060046000600760009054906101000a900473ffffffffffffffffffffffffffffffffffffffff1673ffffffffffffffffffffffffffffffffffffffff1673ffffffffffffffffffffffffffffffffffffffff1681526020019081526020016000206040518060a00160405290816000820160009054906101000a900473ffffffffffffffffffffffffffffffffffffffff1673ffffffffffffffffffffffffffffffffffffffff1673ffffffffffffffffffffffffffffffffffffffff168152602001600182018054611859906124e7565b80601f0160208091040260200160405190810160405280929190818152602001828054611885906124e7565b80156118d25780601f106118a7576101008083540402835291602001916118d2565b820191906000526020600020905b8154815290600101906020018083116118b557829003601f168201915b50505050508152602001600282015481526020016003820180546118f5906124e7565b80601f0160208091040260200160405190810160405280929190818152602001828054611921906124e7565b801561196e5780601f106119435761010080835404028352916020019161196e565b820191906000526020600020905b81548152906001019060200180831161195157829003601f168201915b505050505081526020016004820154815250509050600181608001516119949190612c95565b82826040015183608001516119a99190612cc9565b6119b39190612c95565b6119bd9190612b66565b816040018181525050600181608001516119d79190612c95565b8160800181815250505050565b600360006119f29190611c14565b565b600080600090505b600580549050811015611a975760058181548110611a1d57611a1c612518565b5b9060005260206000200160009054906101000a900473ffffffffffffffffffffffffffffffffffffffff1673ffffffffffffffffffffffffffffffffffffffff163373ffffffffffffffffffffffffffffffffffffffff1603611a84576000915050611c0e565b8080611a8f90612576565b9150506119fc565b5060006040518060a001604052803373ffffffffffffffffffffffffffffffffffffffff168152602001858152602001600081526020018481526020016000815250905080600460003373ffffffffffffffffffffffffffffffffffffffff1673ffffffffffffffffffffffffffffffffffffffff16815260200190815260200160002060008201518160000160006101000a81548173ffffffffffffffffffffffffffffffffffffffff021916908373ffffffffffffffffffffffffffffffffffffffff1602179055506020820151816001019081611b77919061276a565b50604082015181600201556060820151816003019081611b97919061276a565b50608082015181600401559050506005339080600181540180825580915050600190039060005260206000200160009091909190916101000a81548173ffffffffffffffffffffffffffffffffffffffff021916908373ffffffffffffffffffffffffffffffffffffffff16021790555060019150505b92915050565b5080546000825560090290600052602060002090810190611c359190611c78565b50565b508054611c44906124e7565b6000825580601f10611c565750611c75565b601f016020900490600052602060002090810190611c749190611d1e565b5b50565b5b80821115611d1a57600080820160006101000a81549073ffffffffffffffffffffffffffffffffffffffff0219169055600182016000611cb99190611c38565b600282016000611cc99190611c38565b600382016000611cd99190611c38565b6004820160009055600582016000611cf19190611c38565b6006820160009055600782016000611d099190611c38565b600882016000905550600901611c79565b5090565b5b80821115611d37576000816000905550600101611d1f565b5090565b6000819050919050565b611d4e81611d3b565b82525050565b6000602082019050611d696000830184611d45565b92915050565b600081519050919050565b600082825260208201905092915050565b6000819050602082019050919050565b600073ffffffffffffffffffffffffffffffffffffffff82169050919050565b6000611dc682611d9b565b9050919050565b611dd681611dbb565b82525050565b600081519050919050565b600082825260208201905092915050565b60005b83811015611e16578082015181840152602081019050611dfb565b60008484015250505050565b6000601f19601f8301169050919050565b6000611e3e82611ddc565b611e488185611de7565b9350611e58818560208601611df8565b611e6181611e22565b840191505092915050565b611e7581611d3b565b82525050565b600061012083016000830151611e946000860182611dcd565b5060208301518482036020860152611eac8282611e33565b91505060408301518482036040860152611ec68282611e33565b91505060608301518482036060860152611ee08282611e33565b9150506080830151611ef56080860182611e6c565b5060a083015184820360a0860152611f0d8282611e33565b91505060c0830151611f2260c0860182611e6c565b5060e083015184820360e0860152611f3a8282611e33565b915050610100830151611f51610100860182611e6c565b508091505092915050565b6000611f688383611e7b565b905092915050565b6000602082019050919050565b6000611f8882611d6f565b611f928185611d7a565b935083602082028501611fa485611d8b565b8060005b85811015611fe05784840389528151611fc18582611f5c565b9450611fcc83611f70565b925060208a01995050600181019050611fa8565b50829750879550505050505092915050565b6000602082019050818103600083015261200c8184611f7d565b905092915050565b6000604051905090565b600080fd5b600080fd5b600061203382611d9b565b9050919050565b61204381612028565b811461204e57600080fd5b50565b6000813590506120608161203a565b92915050565b60006020828403121561207c5761207b61201e565b5b600061208a84828501612051565b91505092915050565b61209c81611dbb565b82525050565b600082825260208201905092915050565b60006120be82611ddc565b6120c881856120a2565b93506120d8818560208601611df8565b6120e181611e22565b840191505092915050565b600060a0820190506121016000830188612093565b818103602083015261211381876120b3565b90506121226040830186611d45565b818103606083015261213481856120b3565b90506121436080830184611d45565b9695505050505050565b600080fd5b600080fd5b7f4e487b7100000000000000000000000000000000000000000000000000000000600052604160045260246000fd5b61218f82611e22565b810181811067ffffffffffffffff821117156121ae576121ad612157565b5b80604052505050565b60006121c1612014565b90506121cd8282612186565b919050565b600067ffffffffffffffff8211156121ed576121ec612157565b5b6121f682611e22565b9050602081019050919050565b82818337600083830152505050565b6000612225612220846121d2565b6121b7565b90508281526020810184848401111561224157612240612152565b5b61224c848285612203565b509392505050565b600082601f8301126122695761226861214d565b5b8135612279848260208601612212565b91505092915050565b61228b81611d3b565b811461229657600080fd5b50565b6000813590506122a881612282565b92915050565b600080600080608085870312156122c8576122c761201e565b5b600085013567ffffffffffffffff8111156122e6576122e5612023565b5b6122f287828801612254565b945050602085013567ffffffffffffffff81111561231357612312612023565b5b61231f87828801612254565b935050604085013567ffffffffffffffff8111156123405761233f612023565b5b61234c87828801612254565b925050606061235d87828801612299565b91505092959194509250565b60008115159050919050565b61237e81612369565b82525050565b60006020820190506123996000830184612375565b92915050565b60006020820190506123b46000830184612093565b92915050565b6123c381611dbb565b81146123ce57600080fd5b50565b6000813590506123e0816123ba565b92915050565b6000602082840312156123fc576123fb61201e565b5b600061240a848285016123d1565b91505092915050565b6000806040838503121561242a5761242961201e565b5b600083013567ffffffffffffffff81111561244857612447612023565b5b61245485828601612254565b925050602083013567ffffffffffffffff81111561247557612474612023565b5b61248185828601612254565b9150509250929050565b6000602082840312156124a1576124a061201e565b5b60006124af84828501612299565b91505092915050565b7f4e487b7100000000000000000000000000000000000000000000000000000000600052602260045260246000fd5b600060028204905060018216806124ff57607f821691505b602082108103612512576125116124b8565b5b50919050565b7f4e487b7100000000000000000000000000000000000000000000000000000000600052603260045260246000fd5b7f4e487b7100000000000000000000000000000000000000000000000000000000600052601160045260246000fd5b600061258182611d3b565b91507fffffffffffffffffffffffffffffffffffffffffffffffffffffffffffffffff82036125b3576125b2612547565b5b600182019050919050565b60008190508160005260206000209050919050565b60006020601f8301049050919050565b600082821b905092915050565b6000600883026126207fffffffffffffffffffffffffffffffffffffffffffffffffffffffffffffffff826125e3565b61262a86836125e3565b95508019841693508086168417925050509392505050565b6000819050919050565b600061266761266261265d84611d3b565b612642565b611d3b565b9050919050565b6000819050919050565b6126818361264c565b61269561268d8261266e565b8484546125f0565b825550505050565b600090565b6126aa61269d565b6126b5818484612678565b505050565b5b818110156126d9576126ce6000826126a2565b6001810190506126bb565b5050565b601f82111561271e576126ef816125be565b6126f8846125d3565b81016020851015612707578190505b61271b612713856125d3565b8301826126ba565b50505b505050565b600082821c905092915050565b600061274160001984600802612723565b1980831691505092915050565b600061275a8383612730565b9150826002028217905092915050565b61277382611ddc565b67ffffffffffffffff81111561278c5761278b612157565b5b61279682546124e7565b6127a18282856126dd565b600060209050601f8311600181146127d457600084156127c2578287015190505b6127cc858261274e565b865550612834565b601f1984166127e2866125be565b60005b8281101561280a578489015182556001820191506020850194506020810190506127e5565b868310156128275784890151612823601f891682612730565b8355505b6001600288020188555050505b505050505050565b7f4661696c656420746f2073656e64204574686572000000000000000000000000600082015250565b60006128726014836120a2565b915061287d8261283c565b602082019050919050565b600060208201905081810360008301526128a181612865565b9050919050565b600081905092915050565b50565b60006128c36000836128a8565b91506128ce826128b3565b600082019050919050565b60006128e4826128b6565b9150819050919050565b600081905092915050565b600061290482611ddc565b61290e81856128ee565b935061291e818560208601611df8565b80840191505092915050565b600061293682846128f9565b915081905092915050565b600081549050612950816124e7565b9050919050565b818103612965575050612a3d565b61296e82612941565b67ffffffffffffffff81111561298757612986612157565b5b61299182546124e7565b61299c8282856126dd565b6000601f8311600181146129cb57600084156129b9578287015490505b6129c3858261274e565b865550612a36565b601f1984166129d9876125be565b96506129e4866125be565b60005b82811015612a0c578489015482556001820191506001850194506020810190506129e7565b86831015612a295784890154612a25601f891682612730565b8355505b6001600288020188555050505b5050505050505b565b6000612a4a82611d3b565b9150612a5583611d3b565b9250828203905081811115612a6d57612a6c612547565b5b92915050565b6000819050919050565b6000612a8882612a73565b9150612a9383612a73565b9250828203905081811260008412168282136000851215161715612aba57612ab9612547565b5b92915050565b7f4e487b7100000000000000000000000000000000000000000000000000000000600052603160045260246000fd5b6000612afa82612a73565b91507f7fffffffffffffffffffffffffffffffffffffffffffffffffffffffffffffff8203612b2c57612b2b612547565b5b600182019050919050565b7f4e487b7100000000000000000000000000000000000000000000000000000000600052601260045260246000fd5b6000612b7182611d3b565b9150612b7c83611d3b565b925082612b8c57612b8b612b37565b5b828204905092915050565b7f536f7272792021204e6f7420656e6f7567682065746865727320696e20796f7560008201527f72206163636f756e740000000000000000000000000000000000000000000000602082015250565b6000612bf36029836120a2565b9150612bfe82612b97565b604082019050919050565b60006020820190508181036000830152612c2281612be6565b9050919050565b7f4e6f7420656e6f756768207365637572697479206d6f6e657900000000000000600082015250565b6000612c5f6019836120a2565b9150612c6a82612c29565b602082019050919050565b60006020820190508181036000830152612c8e81612c52565b9050919050565b6000612ca082611d3b565b9150612cab83611d3b565b9250828201905080821115612cc357612cc2612547565b5b92915050565b6000612cd482611d3b565b9150612cdf83611d3b565b9250828202612ced81611d3b565b91508282048414831517612d0457612d03612547565b5b509291505056fea26469706673582212207387eddd5fa63f19fa7f517dd3f92d4123a731a9072195959f05a3d3c7cf7eff64736f6c63430008120033",
  "linkReferences": {},
  "deployedLinkReferences": {}
}